{
    "contractName": "Bank",
    "abi": [
        {
            "inputs": [
                {
                    "internalType": "uint256",
                    "name": "amt",
                    "type": "uint256"
                }
            ],
            "name": "deposit",
            "outputs": [
                {
                    "internalType": "uint256",
                    "name": "",
                    "type": "uint256"
                }
            ],
            "stateMutability": "nonpayable",
            "type": "function"
        },
        {
            "inputs": [],
            "name": "showBalance",
            "outputs": [
                {
                    "internalType": "uint256",
                    "name": "",
                    "type": "uint256"
                }
            ],
            "stateMutability": "view",
            "type": "function"
        },
        {
            "inputs": [
                {
                    "internalType": "uint256",
                    "name": "amt",
                    "type": "uint256"
                }
            ],
            "name": "withdraw",
            "outputs": [
                {
                    "internalType": "uint256",
                    "name": "",
                    "type": "uint256"
                }
            ],
            "stateMutability": "nonpayable",
            "type": "function"
        }
    ],
    "bytecode": "608060405234801561001057600080fd5b5061015b806100206000396000f3fe608060405234801561001057600080fd5b50600436106100415760003560e01c80632e1a7d4d1461004657806381b2d07b1461006b578063b6b55f2514610073575b600080fd5b6100596100543660046100ca565b610086565b60405190815260200160405180910390f35b600054610059565b6100596100813660046100ca565b6100b7565b6000805482111561009957506000919050565b816000808282546100aa91906100f9565b9091555060019392505050565b6000816000808282546100aa9190610112565b6000602082840312156100dc57600080fd5b5035919050565b634e487b7160e01b600052601160045260246000fd5b8181038181111561010c5761010c6100e3565b92915050565b8082018082111561010c5761010c6100e356fea2646970667358221220e51bdea349d87bf4f098d08d8b4ba07548084b1b01cdbb9adf5d5aa3914d57a564736f6c63430008110033",
    "sourcePath": "e:/BE/41427_LP-III_Codes/DAA/BT_Assignment2_41427.sol",
    "compiler": {
        "name": "solc",
        "version": "0.8.17+commit.8df45f5f"
    },
    "functionHashes": {
        "deposit(uint256)": "b6b55f25",
        "showBalance()": "81b2d07b",
        "withdraw(uint256)": "2e1a7d4d"
    },
    "gasEstimates": {
        "creation": {
            "codeDepositCost": "69400",
            "executionCost": "117",
            "totalCost": "69517"
        },
        "external": {
            "deposit(uint256)": "24604",
            "showBalance()": "2280",
            "withdraw(uint256)": "26686"
        }
    }
}